:020000040800F2
:10000000A8070020CD01000879280008E92300088E
:10001000752800088D0A0008B929000800000000B2
:10002000000000000000000000000000A1290008FE
:10003000910A0008000000007D280008A52900089A
:10004000E7010008E7010008E7010008E7010008F0
:10005000E7010008E7010008950A00089D0A00086A
:10006000E7010008E7010008E7010008E7010008D0
:10007000E7010008E7010008E7010008E7010008C0
:10008000E7010008E7010008E7010008E7010008B0
:10009000E7010008E7010008E7010008E7010008A0
:1000A000E7010008E7010008E7010008E701000890
:1000B000AD290008E7010008E7010008E701000892
:1000C000E7010008E7010008E7010008E701000870
:1000D000E7010008E7010008E7010008E701000860
:1000E000E7010008E7010008E701000800F002F856
:1000F00000F05DF814A696E8000CB244B344DA456B
:1001000001D100F054F8BAE80F000FA696E83000CD
:10011000A5EB040504EB0607AAEB0704A7F101070A
:100120004FEA15154FEA3414A4F10104AC4201D38F
:1001300000F03DF813F0010F18BFFB1A43F0010364
:1001400000F001F8DBE71847843E0000A43E000001
:10015000103A24BF78C878C1FAD8520724BF30C8F3
:1001600030C144BF04680C60704700007047000055
:100170000023002400250026103A28BF78C1FBD8B0
:10018000520728BF30C148BF0B607047662903F093
:10019000BA86002070471FB500F002FB0400002063
:1001A000002103F037FBE0601FBD10B510BD00F06B
:1001B000F7FB1146FFF7EFFF02F062FD00F015FCC0
:1001C00003B4FFF7F2FF03BC00F058FC0948804776
:1001D00009480047FEE7FEE7FEE7FEE7FEE7FEE729
:1001E000FEE7FEE7FEE7FEE704480549054A064B41
:1001F00070470000A9290008ED000008A8010020B0
:10020000A8070020A8030020A80300200FB41CB5F5
:10021000074B06AA7B4469460090059800F0A7FAB0
:100220000020694600F0B6FA1CBC5DF814FB000023
:100230007D0500002DE9F0474FF0000A894604468D
:10024000C0F820A02046E1688847002876D02528FD
:1002500006D0D4E901219047206A401C2062F1E7D2
:10026000E168204600258847C4F81CA00646002700
:10027000C4F818A02A2E09D0304603F0C3FA38B3C8
:1002800004EB8708303EC8F8186019E059F8041BE1
:10029000204604EB87029161E1688847012F0646FA
:1002A00018D1E069002820DA25F020051DE0D8F8F3
:1002B000180000EB800006EB40003038C8F818004A
:1002C0002046E1688847064603F09CFA0028EED1F4
:1002D000012F0AD02E2E08D12046E16888477F1CC6
:1002E0000646022F45F02005C4DBA069002803DA8A
:1002F000404245F00105A061E80701D025F0100556
:10030000B6B1A6F14100192802D8203645F400659F
:100310004A463146204625604D46FFF737FF58B123
:10032000012806D0ED1D25F0070000F1080989E736
:1003300004E005F1040985E730468AE7206ABDE854
:10034000F0877047704770472DE9FF4F0C461E46F7
:100350004FF0FF378BB0D2E90001DDF860800A90E2
:100360008A46C1F30A5505B93D46002108464FF0BB
:100370000000BAF1000F00F4400005DA00EB800045
:100380004FF4400101EA50004FEA9059B9F1010FD2
:1003900000DDB9460A9850EA4A000ED044F61050E3
:1003A000A5F2FF3545432F14B8F1000F1ED075425A
:1003B000291E1EDDC9F100021CE0B8F1010F4FF04B
:1003C000000001D0302103E0F24305E02154401C3D
:1003D000B042FBDB30460022002121540B99C1F8CA
:1003E0000880C1E900200FB0BDE8F08FBD1B6D1C77
:1003F000DEE74A4600DA694206A800F05BFA06AB7F
:1004000093E8070003AB83E8070050460A9902F01F
:100410001DFE8DE80700A0F500501F3800900398DE
:10042000002D0ADD42F21F014A460844002303A9B9
:100430000390684603F086F809E0A0F500504A46AC
:100440001F38002303A90390684603F090F88DE855
:1004500007000004000C03D04FF0FF30410800E01B
:100460001046B8F1000F03D00022009215461EE09E
:10047000751E05D400F098F9303262556D1EF9D51D
:10048000B3460122084302D000227F1C04E02078FA
:10049000302801D100227F1E002A099784D01DE058
:1004A000112D07DA00F080F9303262556D1C50EAE8
:1004B0000102F5D1084302D00098C8B10EE0002136
:1004C000681E05E0235C625C63542254401E491C94
:1004D0008142F7DBAB46A81B401E0990002004F8C0
:1004E0000B000B98099AC0F80880C0E9002B7AE746
:1004F00011264FF0000857E72DE9F04F88460446D3
:10050000D21D22F0070191B0D1E90001CDE90A0125
:1005100003F064F902460B98C00F01D02D2007E0CC
:100520002068810701D52B2002E0202101EAC000CC
:10053000032A099001D0072A05DB034641462046DD
:1005400000F078F90BE12078800601D5E06900E041
:100550000620B8F1650F814606D0B8F1660F18D0B5
:10056000B8F1670F70D131E00020B9F1110F0090A0
:1005700001DB112301E009F101030AAA01A90CA87A
:10058000FFF7E2FEDDE90C70002609F10105834664
:1005900047E001204B4600904FF000470AAA01A90E
:1005A0000CA8FFF7D1FEDDE90DB00C995D460026E1
:1005B00010B909F101000D18B9EB050003D4C0F121
:1005C000FF3609F10105A5EB09002BE0B9F1010F98
:1005D00001DA4FF001090020B9F1110F00904846EF
:1005E00001DD112300E003460AAA01A90CA8FFF7C8
:1005F000ABFEDDE90C704D460026834620780007EF
:100600000AD4AB4500DA5D4601A8012D04DD41198D
:1006100011F8011C302907D04F4502DA17F1040FF9
:1006200004DA012082460FE06D1EEEE7002F02DCA7
:10063000ED1B3E4403E0781CA84200DD7D1CB81B86
:1006400000F1010A4FF000472078000703D4AA45C3
:1006500001DB4FF0FF3A0021B7F1004F0DF14308E5
:100660008DF8431024D002202B23002F01DA7F4283
:100670002D230A21021EA0F1010000DC5FB197FBCF
:10068000F1FC97FBF1F201FB1C7C17460CF1300CDE
:1006900008F801CDEEE7A8F10100037021880905F3
:1006A00001D5452100E06521A0F1010800F8011CF9
:1006B00009980FA9A1EB0807FF1D00B101204119FE
:1006C00001EBEA70A1693844081A401EA061207845
:1006D000C00602D42046AFF30080099828B1D4E9BF
:1006E00001219047206A401C20622078C00622D554
:1006F0002046AFF300801EE0002E04DBB34502DD90
:1007000001A8805D00E03020D4E901219047206AF3
:10071000401C2062761CAAF101005FEA000A0AD19F
:1007200000F03EF8C0680168405CD4E901219047C0
:10073000206A401C2062281EA5F10105DCDC07E0D0
:10074000D4E9012118F8010B9047206A401C20626F
:10075000381EA7F10107F3DC2046AFF30080032029
:1007600011B041E601694A1C02610878704700B582
:100770008FB0CDE901310021059105497944CDE9DA
:10078000031011466846FFF755FD0FB000BD00008D
:10079000E5FFFFFF0A6802F8010B0A6070470000DE
:1007A000004870473000002030B5B0F10A0271F106
:1007B00000034FEA900E4EEA817EB0EB0E0061EB33
:1007C00091014FEA101E4EEA017E10EB0E0041EB44
:1007D00011114FEA102E4EEA016E10EB0E0041EBA4
:1007E00011214FEA104E4EEA014E10EB0E0041EB84
:1007F0001141401841F100014FEAD00040EA417038
:100800004FEAD1014FEA810444EA907410EB80056D
:1008100044EB01046D1944EB0404521BA3414FF057
:10082000000348BF0A3200D530BD401C41F1000131
:1008300030BD00002DE9F0411F4604460326016843
:10084000072A01F4006004DB08B116A505E016A52F
:1008500003E008B115A500E015A521F01000206007
:10086000A069C01EA0610FB1401EA0612046AFF379
:1008700000804FB1D4E9012138469047206A401CDE
:100880002062C01C206206E0206AFAE7D4E9012158
:1008900015F8010B9047761EF8D22046AFF3008082
:1008A000BDE8F0814E414E006E616E00494E46003B
:1008B000696E66002DE9F047814616468AB03548D4
:1008C00078440DC88DE80D0032487844801C03AC94
:1008D0000DC884E80D0041F69B300844372190FB99
:1008E000F1F290FBF1F5A5F1800501FB12041B3C30
:1008F00002D56442012000E00020DFF898A0804685
:100900000027FA44AAF1BE0A0EE0E0070AD03246F8
:10091000684607EB470101230AEB810102F027FE3D
:100920008DE8070064107F1C002CEED1194F7F4426
:10093000AE3F19E0E80715D007EB04100DF1180AD7
:1009400090E80E008AE80E00C068F04201D19819C4
:1009500008903246012306A903A802F008FE03AB63
:1009600083E807006D10641C002DE3D14FF00103F4
:1009700032466946B8F1000F03A802D002F0E2FD4A
:1009800001E002F0F4FDC9E90001C9F808200AB04D
:10099000BDE8F087C4360000004870471000002012
:1009A0007546FFF7F9FFAE4605006946534620F04D
:1009B0000700854618B020B5FFF716FCBDE82040BB
:1009C0004FF000064FF000074FF000084FF0000B0B
:1009D000AC46ACE8C009ACE8C009ACE8C009ACE87A
:1009E000C00921F007018D46704710B50446AFF3EA
:1009F00000802046BDE81040FFF7E2BB4FF0013C0D
:100A000050F8042B51F8043B9A4221D1A2EB0C037D
:100A1000934313EACC1317D150F8042B51F8043B3D
:100A20009A4215D1A2EB0C03934313EACC130BD1DA
:100A300050F8042B51F8043B9A4209D1A2EB0C0365
:100A4000934313EACC13DBD04FF00000704700BF94
:100A5000D01A01BAB1FA81F101F0180122FA01F0BD
:100A6000CB40DBB2C0B2C01AC1F120012CFA01F3B5
:100A7000D11A914311EAC311E6D1704701491820F8
:100A8000ABBEFEE72600020070470000FEE7000054
:100A900070470000012000F04DB80000022000F077
:100AA00049B80000B0B5044600F05EF9054640F2D2
:100AB0000000C2F200000078611C18BF044400BFAF
:100AC00000F052F9401BA042FAD3B0BDB0B50446C5
:100AD00000F04AF940F29C15C2F200052968401A5C
:100AE000C82801D2B0BD00BF00F03EF9012C28603B
:100AF00008D0022C18BFB0BD00210024CBF68071B5
:100B000003E000BF01244FF07E5140F20C05C2F219
:100B10000005286803F002F8034641F20000C4F221
:100B200001004FF4005122462B60BDE8B04000F0B8
:100B300015B9000040F21441C4F201010A680242F2
:100B400014BF08607047FFF7C1BF00002DE9F04FE8
:100B500082B00E68002E00F0FD8041F20042C4F227
:100B60000102042340F2004E904208BF03234FF6D7
:100B7000FF7CC4F2010E009300240123C1F2100C8B
:100B80004FF0000A4FF000094BE000BF41F20002B5
:100B9000C4F20102009F904208BF022704F00C0338
:100BA0000F229A402BEA020207FA03F34FEA9A0552
:100BB0001A4346F825204E6840F20C45F202DEF852
:100BC000082054BF22EA080242EA0802C4F20105E2
:100BD000CEF808202A68B30254BF22EA080242EA8B
:100BE00008022A60B303DEF8042054BF22EA080298
:100BF00042EA0802F303CEF80420DEF800204FF0AA
:100C0000010354BF22EA080242EA0802CEF800209B
:100C10000E680AF1010A36FA0AF204F1040400F03F
:100C2000998003FA0AFB16EA0B08F1D04E68664574
:100C300012DC122E56D8DFE806F0350B4D4955551B
:100C4000555555555555555555555545510000BFA8
:100C5000D1F80C9046E000BF4FF6FF72C1F22102BE
:100C600096420FDC0022C1F2110296421AD00022F5
:100C7000C1F21202964215D00022C1F22102964220
:100C800010D02FE00022C1F2220296420AD00022A8
:100C9000C1F23102964205D00022C1F232029642E0
:100CA00020D100BF8A684AB1012A14BFC0F814B02D
:100CB000C0F810B04FF0080914E000BF4FF004096D
:100CC00010E000BFCA6802F104090BE04FF0000910
:100CD00008E000BFCA6802F1080903E0CA6802F12F
:100CE0000C0900BF02462646B8F5807F24BF0432B7
:100CF000203E17680F25B54027EA050509FA06F6D4
:100D000035431560CA79D2067FF582AF41F21803E8
:100D1000C4F202031A68AEF57E7642F001021A6050
:100D20001A6802F001020192019A2AF0030256F8B1
:100D300002B040F60002C4F20102904208D040F630
:100D40000042C4F2010290427FF420AF012725E760
:100D5000002723E702B0BDE8F08F0000002A08BF9B
:100D6000090401617047000040F2A010C2F20000C7
:100D700000687047002804BF01207047F0B581B0BB
:100D8000044690F83D0028B9002084F83C00204635
:100D900000F090F9242084F83D002068016821F0DB
:100DA00001010160016841F400410160016821F422
:100DB0000041016000F048FB636848F2A16CC0F29A
:100DC000010C40F60011C0F23D0163453CBF48F202
:100DD0008041C0F21E01884202D2012001B0F0BD64
:100DE0004DF68361C4F21B31A0FB01122168970C00
:100DF000D1F804E04FF496762EF03F0545EA92458F
:100E00004D60774348F638160D6AC0F24106A7FBDD
:100E1000067625F03F07634538BF960C721C3A43AF
:100E20000A62CA6948F2A0664CF6FF77C0F2010672
:100E3000B34222EA07020BD801385B00B0FBF3F0A3
:100E400001306FF31F30042898BF04201BE000BF5F
:100E5000A768013857B119277B43B0FBF3F0013085
:100E60006FF31F3070B100F5804007E003EB4303E0
:100E7000B0FBF3F001306FF31F3018B100F5004004
:100E800001E000BF01201043C8610868D4E90723CE
:100E900020F0C000104318430860886848F2FF3211
:100EA00004F10C0790438CCF18431043A669886067
:100EB000C86820F0FF0038433043C860086840F03D
:100EC0000100086000202021206484F83D10206388
:100ED00084F83E0001B0F0BD2DE9F04383B01E461A
:100EE000174689460446FFF73FFF94F83D10202936
:100EF00024D10546206800BF816989071AD5FFF70C
:100F000033FF411B20681A29F6D381698907F3D57D
:100F100000202021206384F83D1084F83E00216CDD
:100F200041F02001216484F83C00022003B0BDE8B8
:100F3000F08300BF94F83C10012903D1022003B0D4
:100F4000BDE8F083012184F83C100168C90703D192
:100F5000016841F001010160016840F2020821F4DA
:100F600000610160212184F83D10102184F83E10B9
:100F70000021216467626685618DC0F201082185C8
:100F8000A8F10211E162E16A0A9E11F5803F18BFE3
:100F900001291DD1016841F48071016020464FF0A4
:100FA000011100223346009501F07EFA50B120680D
:100FB0000068C00544BF4FF400702064012003B0F6
:100FC000BDE8F0832069B0F5804F07D1FE2015E021
:100FD0000829DFD0216B1229DCD0DFE7062000EAE8
:100FE000D9102168F030086108F106012046324628
:100FF0002B4601F03FFB0028E0D1FF20216800EAEA
:10100000090008612046414632462B4601F032FB7A
:101010000028D3D1002002902068416902918069A4
:101020000290029806E000BF204631462A4601F0B1
:10103000DDF918BB208D68B3204631462A4601F001
:1010400085FBD8B9606A2168024612F8013B0B6142
:101050006262628D013A6285228D531E23854F693B
:101060007F07E1D51B04DFD0437802300B6160625B
:10107000608D01386085901E2085D5E7206C04289E
:101080009CD12068016841F400710160012003B027
:10109000BDE8F0832068016841F400710160202000
:1010A00084F83D00002084F83E0084F83C0003B042
:1010B000BDE8F08310B586B0016845F20040C4F287
:1010C000000081424FF00001CDE90411CDE9021189
:1010D00002D006B010BD00BF41F21804C4F20204F1
:1010E000216800F5384041F008012160216801F0D5
:1010F000080101910199C02102911221039103215C
:10110000059102A9FFF722FD606840F400106060BD
:10111000606800F400100190019806B010BD000056
:1011200040F2000040F2A011C2F20000C2F2000141
:1011300000780A68104408607047000080B542F2E9
:101140000000C4F20200016841F0100101600320B8
:1011500000F08CF80F2000F005F800F027F80020D0
:1011600080BD000070B540F20006C2F2000640F2F9
:1011700008013278C2F200014FF47A730968B3FBB8
:10118000F2F20446B1FBF2F1084600F06DFE0F2CBE
:101190004FF0010508D838B94FF0FF302146002242
:1011A000002500F037F87460284670BD82B041F227
:1011B0001800C4F202000168022241F0010101603E
:1011C000016801F0010101910199416841F08051EC
:1011D0004160406800F08050009000980420C4F204
:1011E0000100016862F31A61016002B070470000FB
:1011F000002848BF704700F01F01012202FA01F1E8
:101200001C2202EAD0004EF20012CEF200028150FF
:101210007047000010B54EF60C5CCEF2000CDCF806
:101220000030C3F3022E8EF00704042C28BF0424E0
:10123000BEF103034FF0FF3E0EFA04F438BF002363
:10124000A14399400EFA03F39A43114300F00F02B1
:1012500000F160430901043A03F564436244002845
:1012600048BF02F10C03197010BD00004EF60C517E
:10127000CEF200010A684FF6FF031A4060F30A221B
:1012800042F0806040F0FD7008607047002804BFA5
:10129000012070472DE9F04381B042F20008C4F20A
:1012A00002080446D8F800000D4600F0070081420D
:1012B0000CD9D8F8000020F007002843C8F8000037
:1012C000D8F8000000F00700A8426CD1206841F275
:1012D00004098107C4F2020917D5410705D5D9F8D9
:1012E000001041F4E061C9F80010010705D5D9F8F4
:1012F000001041F46051C9F80010D9F80010A2683C
:1013000021F0F0011143C9F80010C00742D1D8F80C
:10131000000000F0070085420CD2D8F8000020F051
:1013200007002843C8F80000D8F8000000F00700C4
:10133000A84238D12068410707D5D9F80010E268E3
:1013400021F4E0611143C9F80010000708D5D9F86D
:101350000000216920F4605040EAC100C9F8000093
:10136000D9F8002002F00C00082841F20020C0F259
:101370007A004DD143F6BA73C2F38341C0F600033D
:10138000595CD20338D440F60010C0F23D00484307
:101390003EE000BF606859F8041C022808D001280C
:1013A00026D1890306D4012001B0BDE8F08300BF37
:1013B0008901F8D5D9F8001021F003010843C9F8D4
:1013C0000000FFF7D1FC064641F28837D9F800004B
:1013D000616800F00C00B0EB810F98D0FFF7C4FCFF
:1013E000801BB842F2D9032001B0BDE8F08300BFF2
:1013F0008907D8D5DEE700BFD9F8002043F6B873D7
:10140000C2F34042C0F600039A5C4843B0FBF2F0DE
:10141000D9F8001043F6A072C1F30311C0F6000220
:10142000515C40F2080220FA01F140F20400C2F2DD
:1014300000000068C2F200021160FFF793FE002076
:1014400001B0BDE8F083000040F2080041F2040161
:10145000C2F20000C4F202010068096843F6B072EB
:10146000C1F30221C0F60002515CC8407047000081
:10147000002804BF012070472DE9F04182B00446E6
:10148000007841F20006C007C4F202060CD0706872
:1014900000F00C00042840F081803068800303D500
:1014A0006068002800F04681207880071BD57068AE
:1014B00010F00C0F09D0706800F00C00082840F004
:1014C00087807068C00300F183803068800703D58F
:1014D0002069012840F02E813068616920F0F80011
:1014E00040EAC10030602078000713D4207840071C
:1014F0002CD4E569002D00F01881706800F00C0014
:10150000082840F0A780012D40F00481012002B09E
:10151000BDE8F081A069002800F084800020C4F2BA
:1015200042200121C0F88014FFF71EFC054600BFD1
:10153000706A800700F1B280FFF716FC401B02289A
:10154000F6D9032002B0BDE8F08100BFF0695FEA80
:10155000C00808D4F06940F08050F061F06900F0F4
:1015600080500090009847F20007C4F200073868E6
:10157000C00549D4386840F480703860FFF7F4FB48
:10158000054600BF3868C0053ED4FFF7EDFB401BA1
:101590006428F7D9032002B0BDE8F081706800F03C
:1015A0000C00082803D17068C0033FF576AF61686E
:1015B0003068002900F00C81B1F5A02F00F0008107
:1015C000B1F5803F40F01A8140F480301CE100BF4B
:1015D0002069002840F20000C4F2422000F0888018
:1015E00001210160FFF7C0FB054600BF306880079E
:1015F0003FF572AFFFF7B8FB401B0228F6D9032076
:1016000002B0BDE8F08100BFE168306A002900F057
:101610009D80052900F09280012940F0AF8040F0C4
:101620000100B1E00020C4F242200021C0F8801483
:10163000FFF79AFB054600BF706A80077FF556AF3B
:10164000FFF792FB401B0228F6D9032002B0BDE849
:10165000F08100BF0027C4F2422700203866FFF760
:1016600083FB022D05460DD13068800140F1DE80FC
:10167000FFF77AFB401B02284FF00300F4D902B0B9
:10168000BDE8F081306880014FD5FFF76DFB401B4E
:1016900002284FF00300F5D9F1E700BF40F208003F
:1016A000C2F20000006844F6D351C1F26201A0FB0F
:1016B0000101480A019000BF00BF0198411E0028A7
:1016C00001913FF413AF00BF0198411E0028019122
:1016D0003FF40CAF00BF0198411E002801913FF478
:1016E00005AF00BF0198411E00280191E4D1FDE63D
:1016F00000210160FFF738FB054600BF3068800716
:101700007FF5F1AEFFF730FB401B02284FF00300DE
:10171000F4D9B4E77068216A00F480328A4209D1B2
:10172000616A00F47010884204D1002002B0BDE864
:10173000F08100BF012002B0BDE8F08140F004005C
:101740003062306A40F001001EE000BF20F001006E
:101750003062306A20F004003062FFF705FB054676
:1017600041F28837306A800720D5FFF7FDFA401B29
:10177000B8424FF00300F5D981E700BF20F0010027
:101780003062306A20F004003062FFF7EDFA05465F
:1017900041F28837306A800708D4FFF7E5FA401B2A
:1017A000B842F7D9032002B0BDE8F081B8F1000FCC
:1017B0003FF59FAEF06920F08050F06199E600BFE0
:1017C00040F480203060306840F480301CE000BF7E
:1017D00020F480303060306820F480203060FFF7E3
:1017E000C3FA0546306880037FF55EAEFFF7BCFAAA
:1017F000401B64284FF00300F4D940E720F4803008
:101800003060306820F480203060FFF7ADFA054684
:10181000306880033FF548AEFFF7A6FA401B642806
:10182000F6D9032002B0BDE8F08100BF206AB0F510
:10183000803F05D17168A26821F4003111437160C5
:101840007168626A21F474111143084370600120C9
:101850003866FFF789FA0446306880013FF565AFC6
:10186000FFF782FA001B02284FF00300F4D906E7C5
:1018700070B528B1416A29B100210161142106E047
:10188000012070BD4168B1F5827F02D01C21002289
:1018900042500026866290F8511029B980F85060B5
:1018A000054600F039F82846022180F8511090E8EA
:1018B0002E0002F482720C6803F4044324F0400406
:1018C0000C601A4405F4006305691A4405F002032C
:1018D00045691A4405F001038569C4691A4405F491
:1018E00000731A4404F03803046A1A4404F08003B5
:1018F000846A1A4304F400531A430A60042202EA79
:1019000015424A60CA6922F40062CA610121466533
:1019100080F85110304670BD70B586B040F60004B6
:10192000C4F20104006804F520510026884205969F
:10193000CDE90366029601D006B070BD41F21800F1
:10194000C4F20200016802AD41F4805101600168F7
:1019500001F4805101910199016841F00401016095
:101960000068294600F004000190019820200290B0
:1019700002200390032005902046FFF7E7F840205F
:10198000CDE90206204629460496FFF7DFF806B0A7
:1019900070BD00002DE9F04182B0044690F851007E
:1019A000012819D160681D4617460E46B0F5827FA2
:1019B00001D1A068A0B1FFF7D7F98046002E4FF003
:1019C000010018BF002F03D102B0BDE8F08100BFB5
:1019D00094F85000012811D1022002B0BDE8F08136
:1019E000042084F851002046314632463B4600959B
:1019F00000F0D0F802B0BDE8F08100BF012084F80B
:101A000050000420002184F851006165A663A78777
:101A1000E7872163A186E186A2682068B2F5004FBE
:101A20002164616438D00168490640D5E168E08FDF
:101A3000002944D000287BD0681C0CD11BE000BFDB
:101A4000C068A16B21F8020BA163E08F0138E08729
:101A5000E08F00286CD020688168C907F0D1FFF7BB
:101A600083F9A0EB0800A842F2D342E0FFF77CF92B
:101A7000E08F00285CD020688168C907F6D0C06874
:101A8000A16B21F8020BA163E08F0138E087E08FA2
:101A90000028F0D14CE000BF016821F04001016056
:101AA000016821F48041016001684906BED40168E3
:101AB00041F040010160E168E08F0029BAD1B8B37C
:101AC000681C0CD124E000BF007BA16B0870A06BE8
:101AD0000130A063E08F0138E087E08F40B32068D9
:101AE0008168C907F0D1FFF73FF9A0EB0800A842D1
:101AF000F3D3012084F85100002084F85000032023
:101B000002B0BDE8F08100BFFFF72EF9E08F78B199
:101B100020688168C907F7D0007BA16B0870A06BB3
:101B20000130A063E08F0138E087E08F0028EFD11B
:101B30006068B0F5827F11D1A068B0F5004F02D087
:101B4000B0F5806F0AD12168B0F5806F0A6822F085
:101B500040020A6002D12046012101E02046802196
:101B600000222B46CDF8008000F08AFE28B1606D7F
:101B700040F02000606520206065012084F851005D
:101B8000002084F85000606D002818BF012002B0CA
:101B9000BDE8F0812DE9F04383B01E4615460F469F
:101BA0000446FFF7E1F894F851108146012909D164
:101BB000002F4FF0010018BF002D0FD103B0BDE87A
:101BC000F08300BF6068B0F5827F0DD104294FF02B
:101BD0000200F3D1A1680029EAD0EFE7002EEDD092
:101BE00094F85000012803D1022003B0BDE8F0832F
:101BF000012084F8500094F85100002104281CBFF3
:101C0000052084F851006165A563E687A6872763F0
:101C1000E6862068A686216461640168490603D4CB
:101C2000016841F0400101606168731EE268B1FA29
:101C300081F1B3FA83F3DDF8288049095B09B2F535
:101C4000006F41EA030165D131B137F8021BC16071
:101C50002763E08E0138E086012518F1010032D1BA
:101C600002E000BFFFF780F8E08E18B9E08F00288F
:101C700000F0B8802068816889070CD5E18E51B1E9
:101C8000012D08D1216B002531F8022BC2602163A0
:101C9000E18E0139E1868168C907E3D0E18F00292F
:101CA000E0D0C068A16B012521F8020BA163E08F91
:101CB0000138E087D6E700BFFFF756F8A0EB090030
:101CC000404580F0AF80E08E18B9E08F002800F02A
:101CD00089802068816889070CD5E18E51B1012D7A
:101CE00008D1216B002531F8022BC2602163E18EFF
:101CF0000139E1868168C907DED0E18F0029DBD098
:101D0000C068A16B012521F8020BA163E08F0138A7
:101D1000E087D1E739B139780173206B0130206356
:101D2000E08E0138E086012518F1010032D101E092
:101D3000FFF71AF8E08E10B9E08F002852D0206823
:101D4000816889070ED5E18E61B1012D0AD1216B21
:101D5000002509780173216B206801312163E18E30
:101D60000139E1868168C907E2D0E18F0029DFD01F
:101D7000C068A16B01250870A06B0130A063E08FE3
:101D80000138E087D4E700BFFEF7EEFFA0EB0900C3
:101D9000404547D2E08E08B9E08F18B320688168CB
:101DA00089070ED5E18E61B1012D0AD1216B002585
:101DB00009780173216B206801312163E18E0139BB
:101DC000E1868168C907DFD0E18F0029DCD0C068D7
:101DD000A16B01250870A06B0130A063E08F013872
:101DE000E087D1E72046022101224346CDF800904A
:101DF00000F046FD40B92046802100224346CDF840
:101E0000009000F03DFDB8B1606D40F020006065CD
:101E100020206065002084F85000012003B0BDE858
:101E2000F08300BF012084F85100002084F85000A6
:101E3000032003B0BDE8F083A06838B90020029009
:101E40002068C1680291806802900298012084F89D
:101E50005100002084F85000606D002818BF012058
:101E600003B0BDE8F0830000411E0020B0EB116F0D
:101E70001CBF012070474EF21002CEF200025160EA
:101E80004EF62351CEF20001F0230B700721906033
:101E900011607047704700007047000090F83C20C8
:101EA000012A4FF0020236D010B580F83D200268BA
:101EB000D2F804E0D2F808C00C682EF07003234377
:101EC00040F2FF74C4F20004A24253600ADCB2F193
:101ED000804F13D040F20043C4F200039A420DD069
:101EE00011E000BF42F60043C4F201039A4205D05C
:101EF00040F60003C4F200039A4204D149682CF072
:101F00008003194391600121002280F83D1080F880
:101F10003C20BDE81040104670470000002804BF78
:101F20000120704710B590F83D1031B9002180F8BC
:101F30003C10044600F070F82046022180F83D1065
:101F4000016840F2FF740B68C4F2000442F6004CD2
:101F5000A142C4F2010C15DCB1F1804F1AD040F25D
:101F60000042C4F20002914214D0A14218DCB1F147
:101F7000804F1DD040F20042C4F20002914217D0BF
:101F80001AE000BF614505D040F60002C4F200022D
:101F90009142EAD1826823F070031343A142E6DD47
:101FA000614505D040F60002C4F20002914203D11F
:101FB000026923F440731343846923F08002D0F84C
:101FC00004E0C368224361450A60CB62C1F828E09F
:101FD00002D14269CCF8302001224A610B69DB074B
:101FE00003D00B6923F001030B6180F8462080F8D1
:101FF0003E2080F83F2080F8402080F8412080F883
:10200000422080F8432080F8442080F8452080F862
:102010003D20002010BD00000068B0F1804F18BFC7
:10202000704780B582B041F21C00C4F20200016822
:10203000002241F0010101600068002100F0010070
:10204000019001981C20FFF7E5F81C2002B0BDE8C4
:102050008040FFF7CDB8000090F83D1001291CBF6B
:1020600001207047022180F83D10006840F2FF72A5
:10207000C168C4F20002904241F00101C16009DC74
:10208000B0F1804F12D040F20041C4F2000188420A
:102090000CD012E042F60041C4F20101884205D0A2
:1020A00040F60001C4F20001884206D1816801F0C7
:1020B0000701062904BF00207047016841F00101B3
:1020C000016000207047000090F83C20012A4FF08A
:1020D00002026CD080B580F83D20D0F800C04FF6E9
:1020E0007772DCF8083023EA0202CCF808200B688B
:1020F0004F2B29DC1F2B45DD202B46D0302B44D025
:10210000402B40F0AF80D1F804E0C968DCF8203003
:10211000DCF8202022F00102CCF82020DCF8182086
:1021200022F0F00242EA011123F00A0242EA0E0212
:10213000CCF81810CCF82020DCF8081041F047014A
:1021400021F0300128E000BF6F2B33DDB3F5005FD5
:1021500074D0B3F5805F21D0702B40F08380D1E93B
:1021600001E3C968DCF8082043EA0E0322F47F4249
:1021700043EA01211143CCF80810DCF8081041F0C3
:10218000770109E00BB1102B6CD1DCF8081021F0BD
:102190007001194341F00701CCF808100022012119
:1021A00080F83D10002180F83C10BDE880401046CA
:1021B000704700BF502B21D0602B53D1D1F804E0E1
:1021C000C968DCF82030DCF8202022F01002CCF8BE
:1021D0002020DCF8182022F4704242EA013123F07A
:1021E000A00242EA0E12CCF81810CCF82020DCF83D
:1021F000081041F0670121F01001CDE7D1F804E0AB
:10220000C968DCF82030DCF8202022F00102CCF88C
:102210002020DCF8182022F0F00242EA011123F01D
:102220000A0242EA0E02CCF81810CCF82020DCF8A2
:10223000081041F0570121F02001ADE7D1E901E399
:10224000C968DCF8082043EA0E0322F47F4243EA1F
:1022500001211143CCF80810DCF8081041F480414A
:102260009AE700BF01229AE77047000070B5044664
:102270000068C5680669B10716D515F0020113D0CC
:102280006FF002010161012121778069800703D08D
:102290002046FFF7E9FF05E0204600F08FF82046D2
:1022A00000F08EF800202077700719D515F0040093
:1022B00016D020686FF00401016102212177806946
:1022C00010F4407F04D02046FFF7CEFF06E000BFA9
:1022D000204600F073F8204600F072F800202077C6
:1022E000300717D515F0080014D020686FF00801EA
:1022F000016104212177C069800703D02046FFF7E0
:10230000B3FF05E0204600F059F8204600F058F8E9
:1023100000202077F00619D515F0100016D020689F
:102320006FF01001016108212177C06910F4407F2E
:1023300004D02046FFF798FF06E000BF204600F0DB
:102340003DF8204600F03CF800202077F00718BF49
:1023500015F0010002D1300609D412E020686FF0B8
:1023600001010161204600F02DF8300609D515F075
:10237000800006D020686FF0800101612046FFF7E1
:1023800089FD700609D515F0400006D020686FF071
:1023900040010161204600F025F8B00658BF70BD2D
:1023A00015F0200008D021686FF0200220460A6155
:1023B000BDE87040FFF770BD70BD000070470000C1
:1023C000704700000068B0F1804F18BF704780B5BB
:1023D00000F01AFA40F27001C2F200018860BDE814
:1023E0008040704770470000FEE7000070B503684A
:1023F000044653F8140F400711D40E46481C29D048
:1024000086BB00BF1868400527D4FEF7ADFC2368E3
:1024100053F8140F400737D518684007F2D500204D
:1024200070BD00BF18684007F9D41868400514D47F
:1024300018684007F3D4186840050ED418684007A0
:10244000EDD41868400508D4186840074FF0000024
:1024500048BF70BD18684005E4D56FF4806018600F
:10246000042012E0154603E053F8140F4007D6D4B9
:1024700018684005F1D4FEF777FC401B2368B04292
:10248000F2D958694007EFD420200021202221638F
:1024900084F83D2084F83E10226C10432064012013
:1024A00084F83C1070BD00002DE9F041054600683D
:1024B0001E46144601F47F0201338FB242D0DDF88C
:1024C0001880B2F5803F40F0878040693840C01BDB
:1024D000B0FA80F04009844240F0C8804EB924E050
:1024E00040693840C01BB0FA80F04009844240F097
:1024F000BD80FEF739FCA0EB08012868B142EFD996
:1025000041693940C91BB1FA81F149098C42E7D1CF
:102510009BE000BF40693840C01BB0FA80F0400922
:1025200084424FF0000040F0A280FEF71DFC2868B6
:1025300041693940C91BB1FA81F149098C42E9D19D
:1025400083E000BFB2F5803F24D100BF416939402C
:10255000C91BB1FA81F149098C4240F08780416979
:102560003940C91BB1FA81F149098C4240F07E80A3
:1025700041693940C91BB1FA81F149098C4275D1D1
:1025800041693940C91BB1FA81F149098C42DDD05A
:102590006CE000BF81693940C91BB1FA81F149097A
:1025A0008C4263D181693940C91BB1FA81F1490973
:1025B0008C425BD181693940C91BB1FA81F149096B
:1025C0008C4253D181693940C91BB1FA81F1490963
:1025D0008C42DFD04AE000BF80693840C01BB0FAAF
:1025E00080F04009844241D146B923E080693840F7
:1025F000C01BB0FA80F04009844237D1FEF7B4FB2B
:10260000A0EB08012868B142F0D981693940C91BA3
:10261000B1FA81F149098C42E8D116E0806938406D
:10262000C01BB0FA80F0400984424FF0000018BF90
:10263000BDE8F081FEF798FB286881693940C91B25
:10264000B1FA81F149098C42E8D1002020212863A8
:1026500085F83D1085F83E00296C41F02001296481
:1026600085F83C000120BDE8F08100BF0020BDE8F6
:10267000F0810000F0B581B0044600681D46436952
:102680008FB203EA0701B94202D1002001B0F0BDC8
:102690004169164601323CD0490512D47EB300BFD1
:1026A000FEF762FB411B2068B14203D94169394002
:1026B000B9422BD141693940B942E6D04169490557
:1026C000EED5016841F4007101606FF480614161F1
:1026D000042000212022216384F83D2084F83E104C
:1026E000226C1043206484F83C10012001B0F0BD3E
:1026F00041693940B942C8D041694905E1D4FEF782
:1027000033FB206841693940B942F1D02020E0E72D
:1027100041694905D5D441693940B942B5D04169CB
:102720004905CED441693940B942AED04169490525
:10273000C7D441693940B942A7D041694905C0D4DD
:1027400041693940B942E3D19FE7000070B50368A1
:10275000044653F8140F000611D40E46481C29D025
:1027600086BB00BF1868400527D4FEF7FDFA236832
:1027700053F8140F000637D518680006F2D500206C
:1027800070BD00BF18680006F9D41868400514D45D
:1027900018680006F3D4186840050ED418680006BF
:1027A000EDD41868400508D4186800064FF0000002
:1027B00048BF70BD18684005E4D56FF480601860AC
:1027C000042012E0154603E053F8140F0006D6D497
:1027D00018684005F1D4FEF7C7FA401B2368B042E1
:1027E000F2D958690006EFD420200021202221636D
:1027F00084F83D2084F83E10226C104320640120B0
:1028000084F83C1070BD000010B582B040F60004A2
:10281000C4F20104204610210022FEF79FFA40F284
:10282000FC00C2F200000DF1060102226423FFF752
:10283000B1F8204610210122FEF790FA9DF807001A
:10284000410711D49DF8061040EA0120C00801F0AC
:1028500028F80023C3F6D073002201F035F800F009
:10286000EFFF02B010BD00BF0020CBF6807002B0B9
:1028700010BD0000FEE70000FEE70000704700000A
:102880002DE9F04381B0089C984615460E468146D6
:10289000FEF76AFA201A00EB0804FEF765FA40F228
:1028A0000801C2F200010968C1F3CB316143009114
:1028B000D9F800108A683240921BB2FA82F25209AB
:1028C00095423DD0074618F1010031D0FEF74CFA91
:1028D000C01BA04238D2009800990028A1F1010144
:1028E0000091D9F80010896808BF044601EA060083
:1028F000801BB0FA80F040098542E7D120E000BF9C
:1029000088683040801BB0FA80F04009854217D0BB
:1029100088683040801BB0FA80F0400985420FD0B3
:1029200088683040801BB0FA80F04009854207D0AB
:1029300088683040801BB0FA80F040098542DFD1C2
:10294000002001B0BDE8F083D9E900014268B1F58B
:10295000827F22F0E00242600BD1D9F80810B1F575
:10296000004F02D0B1F5806F03D1016821F0400122
:102970000160D9F82810B1F5005F07D1016821F492
:1029800000510160016841F400510160012089F8A3
:102990005100002089F85000032001B0BDE8F08309
:1029A00070470000FEF7BCBB7047000040F25410B7
:1029B000C2F20000FFF75ABCFEE7000080B582B00B
:1029C00040F60C00C1F61C00019040F2A8004FF048
:1029D000640CC2F2000001AA4E210423CDF800C00D
:1029E000FEF77AFA0120FEF75DF80220FEF75AF8AA
:1029F00002B080BD70B582B03220FEF753F840F2CD
:102A0000A80443F63C06C2F20004C0F60C06642596
:102A100001AA20464E21042301960095FEF75CFA98
:102A20000120FEF73FF80520FEF73CF801AA2046FA
:102A30004E21042301960095FEF74EFA0120FEF781
:102A400031F80120FEF72EF801AA20464E2104237A
:102A500001960095FEF740FA0120FEF723F80A20C0
:102A6000FEF720F842F62C00C0F60C00019001AAF7
:102A700020464E2104230095FEF72EFA0120FEF792
:102A800011F842F62C00C8F68C00019001AA2046ED
:102A90004E2104230095FEF71FFA0120FEF702F8ED
:102AA00040F60C00C8F68C00019001AA20464E2189
:102AB00004230095FEF710FA0120FDF7F3FF40F61E
:102AC0000C00C1F61C00019001AA20464E210423EF
:102AD0000095FEF701FA0120FDF7E4FF0220FDF763
:102AE000E1FF40F60C00C6F66C00019001AA2046FA
:102AF0004E2104230095FEF7EFF90120FDF7D2FFE8
:102B000040F60C00CCF6CC00019001AA20464E21E4
:102B100004230095FEF7E0F90120FDF7C3FF02B0A2
:102B200070BD000080B582B0C022002808BF80229E
:102B3000501820F00F01000101F108020C318DF84E
:102B4000041000F108010C308DF8060040F2A800D6
:102B50008DF805208DF807104FF0640CC2F20000CC
:102B600001AA4E210423CDF800C0FEF7B5F90120DB
:102B7000FDF798FF02B080BD0178002908BF7047BB
:102B8000F0B583B040F2A804461E6427C2F20004E8
:102B900002AD00BF21F00F00090100F109020D3064
:102BA0008DF8080001F109000D318DF809208DF82C
:102BB0000A108DF80B0020464E212A460423009768
:102BC000FEF78AF90120FDF76DFFB1780136002983
:102BD000E0D103B0BDE8F04070470000F0B583B02D
:102BE0000446C020002908BF8020104420F00F01B7
:102BF000000101F108020C318DF8041000F1080108
:102C00000C308DF8060040F2A8008DF805208DF8F4
:102C100007106426C2F2000001AA4E210423009688
:102C2000FEF75AF90120FDF73DFF207828B3671E13
:102C300040F2A804C2F2000402AD00BF20F00F0170
:102C4000000101F109020D318DF8081000F10901B0
:102C50000D308DF809208DF80A008DF80B102046F4
:102C60004E212A4604230096FEF736F90120FDF78F
:102C700019FFB87801370028E0D103B0F0BD00009B
:102C800092B0FEF75BFA00240120CDE90D44CDE9B6
:102C90000B4408900C904FF4E0104FF48031022563
:102CA000119008A8CDE90914CDE90F51FEF7E0FB1A
:102CB00020B1EFF3108072B6FEE700BF0F20CDE920
:102CC00002054FF48060CDE9050402A802210494B6
:102CD000FEF7DCFA20B1EFF3108072B6FEE700BF1A
:102CE000002741F21800CDE90A77CDE90877C4F250
:102CF0000200016840F6000841F01001016001681F
:102D0000C4F2010801F0100102910299016808F56E
:102D1000006541F0200101600168002201F02001FE
:102D20000291029901684FF4005641F004010160DC
:102D3000016801F0040102910299016841F0080163
:102D4000016000684FF4005100F008000290029802
:102D50002846FEF703F84046102101224FF01009E3
:102D60000124FDF7FBFF08F5806B58460121002286
:102D7000FDF7F4FFCDE9086408AE4FF0020A2846DB
:102D800031460A97CDF82CA0FDF7E0FE032008900D
:102D90000020C1F22100CDE9090440463146FDF78B
:102DA000D5FE40463146CDE90894CDE90A7AFDF7D3
:102DB000CDFE58463146CDE90844CDE90A7AFDF703
:102DC000C5FE062000210022FEF724FA0620FEF7A9
:102DD0000FFA072000210022FEF71CFA0720FEF759
:102DE00007FA40F2A800A8F53441C2F2000048F208
:102DF000A0624FF48043C0F2010280E88600C0E97F
:102E00000373C0E90577C0E90777FDF7B3FF28B181
:102E1000EFF3108072B600BFFEE700BF40F2FC0087
:102E200008F52051C2F200004FF482724FF4806323
:102E30004FF40076302580E88E000A21C0E904773F
:102E4000C0E90665C0E90877C0E90A71FEF710FD20
:102E500020B1EFF3108072B6FEE700BF40F25410CD
:102E60000021C2F200004FF0804240F23F6342F284
:102E70000F770B91CDE90911CDE90211C0E90023CB
:102E8000C0E9021701618161FFF748F820B1EFF353
:102E9000108072B6FEE700BF4FF48050089040F2F9
:102EA0005410C2F2000008A9FFF70EF920B1EFF3A9
:102EB000108072B6FEE700BF40F25410C2F200006C
:102EC00002A9FEF7EBFF28B1EFF3108072B600BF46
:102ED000FEE700BFCDF804B0FFF78CFDFFF76EFDF5
:102EE0004AA000210022FFF779FE4FF47A70FDF727
:102EF000D9FDFFF763FD40F25410C2F20000FFF766
:102F0000ABF840F2700B40F20C09C2F2000B42A584
:102F1000C2F200090BF1100642A70BF12400009049
:102F20000DE000BF4FF07E54012201980121FDF712
:102F300015FFCBF804404FF47A70FDF7B3FD284637
:102F400000210022FFF74AFE00200921FFF7EAFDD9
:102F5000D9F8000000F0B6FD02460B46304639466F
:102F6000FDF754F93046FFF707FEDBE90241204642
:102F700000F036FEF8B901200021FFF7D3FDDBF8A1
:102F8000084000212046CBF6807100F029FE002881
:102F900026A00AD1204600F095FD009C02460B4673
:102FA000204626A1FDF732F92046FFF7E5FDDBF8C4
:102FB0000840CBF80C40FDF7D7FE9BF80010401AF4
:102FC000B0F57A7FB7D3FDF7CFFED9F800808BF844
:102FD00000002046414600F018FEDBF804A028B9A6
:102FE0005046002100F0FCFD00289BD120464146C0
:102FF00000F012FE00289ED150464FF07E5100F0A6
:10300000EFFD002897D0002200248EE74C6F41701E
:103010005472756E6700000053657454656D703AA4
:1030200000000000252E32662043000053656E73B9
:103030006F72204572726F722020200054656D708F
:103040004C6F41703A252E32662043005FEA400CF7
:1030500008BF91F0000F4FEA8C234FEAC12243EAE8
:1030600051514FEA1C5018BF00F5F0404FEA3000B4
:1030700018BF41F000415FEA6C5C00F02980BCF1B0
:10308000FF3F08BF40F080407047130C06BF12049A
:103090004FF0100C4FF0000C130E04BF12020CF195
:1030A000080C130F04BF12010CF1040C930F04BFA2
:1030B00092000CF1020CD30F04BF52000CF1010C72
:1030C00011464FF00002A0F11F00A0EB0C0070476A
:1030D00011F0004F08BF704731F000413FF4D5AF09
:1030E0000B0C06BF09044FF0100C4FF0000C0B0E38
:1030F00004BF09020CF1080C0B0F04BF09010CF10D
:10310000040C8B0F04BF89000CF1020CCB0F04BF21
:1031100049000CF1010CCCF1200322FA03F341EA3F
:10312000030102FA0CF2A0EB0C0000F10100704761
:1031300023F07F4720F07F4C80EA030000F000403E
:10314000ACEB070303F57C5303F1FF032DE9804942
:1031500009B44FEA144324EA03484FEA154B25EA21
:103160000B4E0FF2042606EB13273E7803FB06678F
:10317000C7F5000707FB06F64FEAD64606F102063A
:103180004FEA543707FB066CCCF1005C4FEA1C4752
:103190002CEA074C0CFB06F507FB06F404EB15467E
:1031A0004FEA961649085FEA320234BF00204FF01A
:1031B00000404FEAD13706FB07FC4FEA1C4C0CFBE2
:1031C0000BF7D21B03FB0CF761EB07010CFB0EF7AF
:1031D000B0EB074072EB17420CFB08F734BFA2EBD1
:1031E0000742B2EB074261EB17414FEA0C444FEA4A
:1031F000910706FB07FC4FEA1C4C0CFB0BF7B0EBEE
:10320000C74072EB573203FB0CF734BFA2EBC74247
:10321000B2EBC74261EB57310CFB0EF7B0EBC700C6
:1032200072EB57720CFB08F734BFA2EBC702B2EB8C
:10323000C70261EB57714FEA816141EA92114FEA8F
:10324000826242EA90124FEA806004EBCC04039F52
:103250004FEAD13706FB07FC4FEA1C4C0CFB0BF77F
:10326000D21B03FB0CF761EB07010CFB0EF7B0EB75
:10327000074072EB17420CFB08F734BFA2EB074282
:10328000B2EB074261EB17414FEA8C5504EB9C24EB
:103290004FEA910706FB07FC4FEA1C4C0CFB0BF7AF
:1032A000B0EBC74072EB573203FB0CF734BFA2EB15
:1032B000C742B2EBC74261EB57310CFB0EF7B0EBE4
:1032C000C70072EB57720CFB08F734BFA2EBC702C2
:1032D000B2EBC70261EB57714FEA816141EA92118B
:1032E0004FEA826242EA90124FEA806015EB4C2569
:1032F00044F100044FEAD13706FB07FC4FEA1C4CAF
:103300000CFB0BF7D21B03FB0CF761EB07010CFB6B
:103310000EF7B0EB074072EB17420CFB08F734BF17
:10332000A2EB0742B2EB074261EB17414FEA813152
:1033300041EA92414FEA823242EA90424FEA8030BB
:103340004FEA0C7615EB1C1544F1000448EA0343E0
:103350004EEA0B484FF0000EB2EB080C71EB03077E
:1033600024BF624639464EEB0E0E4FF0000B00189C
:10337000524149414BEB0B0BB2EB080C71EB0307CD
:103380007BF1000B24BF624639464EEB0E0E4FF028
:10339000000B0018524149414BEB0B0BB2EB080CF0
:1033A00071EB03077BF1000B24BF624639464EEBFD
:1033B0000E0E51EA020718BF46F0010616EB0E7614
:1033C00055F1000254F1000103D5BDE88901BDE8C3
:1033D0000088BDE88901BDE80048B619524141EBBB
:1033E0000101A3F10103704780807F7E7D7C7B7AA1
:1033F0007978777676757473727171706F6E6E6DA1
:103400006C6C6B6A6A696868676666656464636346
:1034100062616160605F5F5E5E5D5D5C5C5B5B5ACC
:103420005A59595858575756565555555454535339
:1034300052525251515050504F4F4F4E4E4D4D4D94
:103440004C4C4C4B4B4B4A4A4A49494948484847DF
:10345000474747464646454545444444444343431D
:1034600043424242424141419C46002B30D47700C6
:103470002BD04FEA37071CB503B44FF010004FF0C4
:103480001001BAF1000F06D0BCF1000FDCBF40F014
:10349000080040F008014FF000000FBCBDE81040EC
:1034A0000BF1010BBBF1010F08BF5FEA170722BF49
:1034B00012F1010211F101014FF0004143F100034B
:1034C00000F0004043EA00007047F9D35708D0E706
:1034D00046EA06464FEA164613F1400F1FDD13F188
:1034E000200FDFBF16430A46002120335B42BED0C7
:1034F000C3F1200746EA06464FEA164602FA07F7E6
:1035000046EA070622FA03F2C3F1200701FA07F799
:1035100042EA070221FA03F14FF00003A7E746EA67
:10352000020646EA06464FEA164646EA0106BCBFD0
:1035300046EA0646360C4FF000034FF000024FF00B
:10354000000194E72DE9804C70B49A46934691E8C7
:10355000380007C831EA400C48BF34EA430C03D5B1
:10356000FFF7E6FDFFF780FFF0BCBDE8008C2DE91A
:10357000804C70B49A46934691E8380007C810F022
:10358000804F08BF13F0804F03D100F005F8FFF71C
:103590006BFFF0BCBDE8008C20F07F4723F07F4C30
:1035A00080EA030000F0004007EB0C03A3F57C5316
:1035B000A3F1FE0392F0000F00F0B38095F0000F2E
:1035C00000F077802DE901494FEA114021EA0048D7
:1035D0004FEA144624EA064700FB06FC08FB06F601
:1035E00007FB08F818EB06484CEB164C00FB07F7F6
:1035F00018EB07484CEB17404FEA124B22EA0B4EF0
:103600004FEA154625EA06470BFB06FC0EFB06F6BD
:1036100007FB0EFE1EEB064E4CEB164C0BFB07F7A2
:103620001EEB074E4CEB174B18EB0B0840F100005C
:1036300018EB0E0B58EB000840F100008F1A4FF00A
:1036400000014FF000063CBFC943661B14BFB5EB39
:10365000040C00213CBFC943F61B4FEA174427EA7C
:1036600004454FEA1C472CEA074C04FB076205FBA4
:1036700007F70CFB05F616EB074642EB174204FB77
:103680000CFC16EB0C4642EB1C421BEB060658EBFF
:10369000020241414EEA8E0E46EA9E0601D5BDE881
:1036A0000189B619524141EB0101A3F10103BDE8C3
:1036B00001894FEA144524EA05464FEA114721EAF9
:1036C000074C05FB07F406FB07F70CFB06F111EBB3
:1036D000074144EB174405FB0CFC11EB0C4144EB98
:1036E0001C444FEA124722EA074C05FB07F206FB8F
:1036F00007F70CFB06F616EB074642EB174205FBF5
:103700000CFC16EB0C4642EB1C456A1854F1000108
:1037100048BF7047B619524141EB0101A3F10103C3
:10372000704795F0000F37D04FEA114221EA024668
:103730004FEA144724EA074C02FB07F106FB07F7A0
:103740000CFB06F414EB074441EB174102FB0CFCA5
:1037500014EB0C4441EB1C414FEA154725EA074C9A
:1037600002FB07F506FB07F70CFB06F616EB074610
:1037700045EB174502FB0CFC16EB0C4645EB1C42D7
:10378000121951F1000148BF7047B619524141EB7F
:103790000101A3F1010370474FEA144524EA0546ED
:1037A0004FEA114721EA074C05FB07F106FB07F733
:1037B0000CFB06F212EB074241EB174105FB0CFC38
:1037C00012EB0C4251EB1C414FF0000648BF704712
:1037D000921841EB0101A3F101037047490050EA3F
:1037E000C12018BF04204A0D18BF40F0010040F26C
:1037F000FF72B2EB515F08BF40F00200012808BF22
:103800000520704730380A2801D201207047002077
:103810007047000010B500290AD00878002807D0AA
:1038200005487844FDF7EAF8002801D0002010BDD3
:103830000248784410BD0000CA070000C20700001B
:1038400021F0004201F00043A2F16052B2F5801F66
:1038500028BFD2F17F6C0BD95FEA001C43EAC20299
:1038600042EB507018BF704728BF20F0010070472E
:10387000B2F5801FBCBF184670474FEA410C1CF5DB
:10388000001F02D2084600F0C3BA70B500F0C6F8B7
:1038900000000089FFF7F6BF4FF00040A0F5800060
:1038A0007047B0FA80F310FA03F10AD0C3F11D0398
:1038B00003F580634FEA03524FEA415002EBD121F6
:1038C00070474FF00000704770B5DFF848C11CEA40
:1038D000111E1EBF1CEA13159EEA0C0F95EA0C0F71
:1038E00000F06F8081EA03044EEAD47EAE4421EA00
:1038F0004C1123EA4C1341F4801143F48013AEF1D0
:103900007F7EA1FB024CA0FB0365361955EB0C052D
:10391000A1FB034C4CF10003A0FB021C16EB0C06B0
:10392000654153F10003094218BF46F0010613F444
:10393000007F0BD14FEA03314FEA053041EA1551C0
:1039400040EA165034036FF003020AE04FEAC32145
:103950004FEAC52041EA555140EA5650F4026FF053
:10396000020202EB2E4201EB025585EACE710AD02B
:103970005FEA440C18BF24F0004450F1000041F10C
:10398000000120EAD47040F2FE7C624500D270BD96
:10399000A84214BF4FF080444FF04044002E08BFAF
:1039A0000024BEF1806FA8BFA1F1C041BDE8704006
:1039B00080F2828001F1C04101F000414FF000002F
:1039C00070470CEA13159EEA0C0F18BF95EA0C0F0E
:1039D00006D081EA030E4FF000000EF0004170BDEA
:1039E00000F01CF88900013E00F007B800F009B8AB
:1039F0004FEA430C5FEA5C5C08D081EA030100F007
:103A00005BB84FEA410C5FEA5C5CF6D102494FF0CB
:103A1000000070470000FF070000F87F0EF1020E63
:103A20002EF0030E5EF8046B364205D4012A43EBF8
:103A3000030515F5001F12D8012841EB010C1CF5F8
:103A4000001F0CD80ED14FEAD17C0CEB4C0C0CF1C2
:103A5000020C15F5001F08BF4CEBD37C04E04FF0BF
:103A6000080C01E04FEAD37C0CEB4C0526FA05F676
:103A700006F00706B6F1040C06D20EEB860CBDE884
:103A800070404CF0010C6047DFE80CF0090B0202BB
:103A90004FF00041A1F500214FF0000070BD194624
:103AA0001046012851EB010418BFD4F5001484BF5F
:103AB000002001F0004170BD0808A0F500114FEA98
:103AC0003101704743004FEAD30C4FEA3C0C4340AE
:103AD0001FBF40070CF1605113F0FE4F70471CF000
:103AE000006F03D10CF00041002070470CF0004340
:103AF00043EA507040EACC0010B500F043F900BF33
:103B0000000000924FEA0001FFF7D6BF4FF00041DE
:103B1000A1F500214FF000007047000090EA010F6E
:103B200048BF81F0004100F18081421A3CBF801AF9
:103B300089184FEAD052A2EBD1534FF07F4C1CEAC8
:103B4000410F18BF9CEA026F00F03B804FF0004C21
:103B50004CEA00204CEA012121FA03FC10EB0C0C8A
:103B60001ED202F1FF325FEA1C2040EBC25038BF88
:103B700070471CF07F0F4FEA400C18BFBCF17F4F1D
:103B800038BF7047C3F12003994008BF20F00100FF
:103B9000BCF17F4F38BF7047A0F1C04000F038B98A
:103BA0004FEA3C00000A40EBC25028BF1CF0FF0F58
:103BB0004FEA400CE6D018BFBCF17F4F38BF7047CA
:103BC000EAE79CEA026F05D010EA5C0F08BF00F03C
:103BD0000040704710B500F0D5F800BF64FBBE3E52
:103BE00010B500F033F80CBF0120002010BD10B557
:103BF00000F02CF814BF0120002010BD10B500F01B
:103C000059F88CBF0120002010BD10B500F052F80B
:103C10002CBF0120002010BD10B500F07FF894BF2C
:103C20000120002010BD10B500F078F834BF01204D
:103C3000002010BD401058BFC0F14040491058BF8F
:103C4000C1F140418142EFF30080704750EA010C1E
:103C500000F113801CF5000F58BFBCF5000F01D414
:103C60008842704707D710F5000F58BF11F5000FB5
:103C700015D488427047894270471CF5000F04D55F
:103C8000BCF5000FF7D5814270474FF0807C1CEBEC
:103C9000400F38BF1CEB410F01D28142704710B575
:103CA00000F070F8922449004FF000504FF080511E
:103CB000FFF7C0BF50EA010C00F113801CF5000FA4
:103CC00058BFBCF5000F01D48842704707D710F5E4
:103CD000000F58BF11F5000F15D488427047894274
:103CE00070471CF5000F04D5BCF5000FF7D58142D5
:103CF00070474FF0807C1CEB400F38BF1CEB410F2E
:103D000001D28142704710B500F03CF8922449007E
:103D10004FF080504FF00051FFF78CBF50EA010C7C
:103D200000F113801CF5000F58BFBCF5000F01D443
:103D30008842704707D710F5000F58BF11F5000FE4
:103D400015D488427047894270471CF5000F04D58E
:103D5000BCF5000FF7D5814270474FF0807C1CEB1B
:103D6000400F38BF1CEB410F01D28142704710B5A4
:103D700000F008F8922449004FF000504FF08051B5
:103D8000FFF758BF0EF1020E2EF0030E5EF8044B43
:103D9000244204D44FEA4102B2F17F4F11D84FEAD6
:103DA0004003B3F17F4F0CD80ED14FEAD07C0CEB1F
:103DB0004C0C0CF1020CB2F17F4F08BF4CEBD17CE4
:103DC00004E04FF0080C01E04FEAD17C0CEB4C030F
:103DD00024FA03F404F00704B4F1040C06D20EEB49
:103DE000840CBDE810404CF0010C6047DFE80CF09B
:103DF000070802024FF00040A0F5800010BD084601
:103E0000420018BFD2F1807288BF00F0004010BDA0
:103E1000FF2141EAD050C0057047000090EA010F31
:103E200048BF81F000413FF580AE421A04D882F0CD
:103E30000042A0EB020011444FEAD052A2EBD15352
:103E40004FF07F4C1CEA410F18BF9CEA026F4AD02A
:103E50004FF0004C4CEA00204CEA012121FA03FC0F
:103E6000B0EB0C0C0FD412F0FE0F36D05FEA4C0012
:103E70001DD5001240EBC25038BF70471CF03F0FF9
:103E800018BF70470BE05FEA1C20A2F1010240EB73
:103E9000C25038BF70471CF07F0F18BF7047C3F186
:103EA0002003994014BF401E20F0010070474FEAE4
:103EB0001223800808BF7047B0FA80FCA2EB0C0206
:103EC000CCF1280C60FA0CF093EA122F04BF00EB3F
:103ED000C25070474FEAC3707047130A5FEADC10A4
:103EE00008BF7047F6E79CEA026F04D010EA5C0F47
:103EF00008BF0020704710B5FFF744FF40DFF63ED3
:103F000081F000407047FCF7F7BA00000240000063
:103F1000000000A00000000005400000000000C8F4
:103F2000000000000C4000000000409C0000000069
:103F3000194000000020BCBE00000000344000001A
:103F4000BFC91B8E00000004B5400000504BCFD00D
:103F50006607E2CF010000006C4100003E8251AADA
:103F6000DFEEA73401000000D9420000DCB5A0E27A
:103F70003A301F97FFFFFFFFB4450000FD25A0C8A2
:103F8000E9A3C14FFFFFFFFFFF3F000000000080DB
:103F900000000000FF3F0000000000800000000063
:103FA00000000000000000000102030406070809E9
:103FB00000000000010203040102020304050607D9
:103FC00008090A0B0C0D0E0F101000000840000825
:103FD00000000020100000005001000818400008F8
:103FE0001000002098070000700100081C0000006D
:103FF00043000000F8FFFFFF0C0000000E0000006F
:104000000F0000002E000000010000001000000062
:0840100000127A0000000442D6
:04000005080000ED02
:00000001FF
